{
  "_format": "hh-sol-artifact-1",
  "contractName": "StakingPool",
  "sourceName": "contracts/StakingPool.sol",
  "abi": [
    {
      "inputs": [
        {
          "internalType": "contract IERC20",
          "name": "_stakingToken",
          "type": "address"
        },
        {
          "internalType": "enum RewardModelType",
          "name": "_rewardModelType",
          "type": "uint8"
        },
        {
          "components": [
            {
              "internalType": "uint256",
              "name": "lockDuration",
              "type": "uint256"
            },
            {
              "internalType": "uint256",
              "name": "multiplier",
              "type": "uint256"
            }
          ],
          "internalType": "struct StakingPool.RewardTier[]",
          "name": "_rewardTiers",
          "type": "tuple[]"
        },
        {
          "internalType": "bool",
          "name": "_forfeitPrincipalOnEarlyUnstake",
          "type": "bool"
        },
        {
          "internalType": "uint256",
          "name": "_forfeitPercent",
          "type": "uint256"
        },
        {
          "internalType": "bool",
          "name": "_autoDistributeRewards",
          "type": "bool"
        },
        {
          "internalType": "uint256",
          "name": "_baseRewardRate",
          "type": "uint256"
        },
        {
          "components": [
            {
              "internalType": "uint256",
              "name": "period",
              "type": "uint256"
            },
            {
              "internalType": "uint256",
              "name": "multiplierIncrementPercentage",
              "type": "uint256"
            }
          ],
          "internalType": "struct StakingPool.DynamicRewardRate",
          "name": "_dynamicRewardRate",
          "type": "tuple"
        }
      ],
      "stateMutability": "nonpayable",
      "type": "constructor"
    },
    {
      "anonymous": false,
      "inputs": [
        {
          "indexed": true,
          "internalType": "address",
          "name": "user",
          "type": "address"
        },
        {
          "indexed": false,
          "internalType": "uint256",
          "name": "reward",
          "type": "uint256"
        }
      ],
      "name": "RewardsClaimed",
      "type": "event"
    },
    {
      "anonymous": false,
      "inputs": [
        {
          "indexed": true,
          "internalType": "address",
          "name": "user",
          "type": "address"
        },
        {
          "indexed": false,
          "internalType": "uint256",
          "name": "amount",
          "type": "uint256"
        },
        {
          "indexed": false,
          "internalType": "uint256",
          "name": "lockDuration",
          "type": "uint256"
        }
      ],
      "name": "Staked",
      "type": "event"
    },
    {
      "anonymous": false,
      "inputs": [
        {
          "indexed": true,
          "internalType": "address",
          "name": "user",
          "type": "address"
        },
        {
          "indexed": false,
          "internalType": "uint256",
          "name": "amount",
          "type": "uint256"
        },
        {
          "indexed": false,
          "internalType": "bool",
          "name": "early",
          "type": "bool"
        },
        {
          "indexed": false,
          "internalType": "uint256",
          "name": "forfeited",
          "type": "uint256"
        }
      ],
      "name": "Unstaked",
      "type": "event"
    },
    {
      "inputs": [],
      "name": "autoDistributeRewards",
      "outputs": [
        {
          "internalType": "bool",
          "name": "",
          "type": "bool"
        }
      ],
      "stateMutability": "view",
      "type": "function"
    },
    {
      "inputs": [],
      "name": "baseRewardRate",
      "outputs": [
        {
          "internalType": "uint256",
          "name": "",
          "type": "uint256"
        }
      ],
      "stateMutability": "view",
      "type": "function"
    },
    {
      "inputs": [
        {
          "components": [
            {
              "internalType": "uint256",
              "name": "amount",
              "type": "uint256"
            },
            {
              "internalType": "uint256",
              "name": "startTimestamp",
              "type": "uint256"
            },
            {
              "internalType": "uint256",
              "name": "lockDuration",
              "type": "uint256"
            }
          ],
          "internalType": "struct StakingPool.StakeInfo",
          "name": "info",
          "type": "tuple"
        }
      ],
      "name": "calculateDynamicRewards",
      "outputs": [
        {
          "internalType": "uint256",
          "name": "",
          "type": "uint256"
        }
      ],
      "stateMutability": "view",
      "type": "function"
    },
    {
      "inputs": [
        {
          "internalType": "address",
          "name": "user",
          "type": "address"
        }
      ],
      "name": "calculateRewards",
      "outputs": [
        {
          "internalType": "uint256",
          "name": "",
          "type": "uint256"
        }
      ],
      "stateMutability": "view",
      "type": "function"
    },
    {
      "inputs": [
        {
          "internalType": "bool",
          "name": "restake",
          "type": "bool"
        }
      ],
      "name": "claimRewards",
      "outputs": [],
      "stateMutability": "nonpayable",
      "type": "function"
    },
    {
      "inputs": [],
      "name": "dynamicRewardRate",
      "outputs": [
        {
          "internalType": "uint256",
          "name": "period",
          "type": "uint256"
        },
        {
          "internalType": "uint256",
          "name": "multiplierIncrementPercentage",
          "type": "uint256"
        }
      ],
      "stateMutability": "view",
      "type": "function"
    },
    {
      "inputs": [],
      "name": "forfeitPrincipalOnEarlyUnstake",
      "outputs": [
        {
          "internalType": "bool",
          "name": "",
          "type": "bool"
        }
      ],
      "stateMutability": "view",
      "type": "function"
    },
    {
      "inputs": [],
      "name": "forfeitPrincipalPercent",
      "outputs": [
        {
          "internalType": "uint256",
          "name": "",
          "type": "uint256"
        }
      ],
      "stateMutability": "view",
      "type": "function"
    },
    {
      "inputs": [
        {
          "internalType": "uint256",
          "name": "duration",
          "type": "uint256"
        }
      ],
      "name": "getMultiplierForDuration",
      "outputs": [
        {
          "internalType": "uint256",
          "name": "",
          "type": "uint256"
        }
      ],
      "stateMutability": "view",
      "type": "function"
    },
    {
      "inputs": [],
      "name": "owner",
      "outputs": [
        {
          "internalType": "address",
          "name": "",
          "type": "address"
        }
      ],
      "stateMutability": "view",
      "type": "function"
    },
    {
      "inputs": [],
      "name": "rewardModelType",
      "outputs": [
        {
          "internalType": "enum RewardModelType",
          "name": "",
          "type": "uint8"
        }
      ],
      "stateMutability": "view",
      "type": "function"
    },
    {
      "inputs": [
        {
          "internalType": "uint256",
          "name": "",
          "type": "uint256"
        }
      ],
      "name": "rewardTiers",
      "outputs": [
        {
          "internalType": "uint256",
          "name": "lockDuration",
          "type": "uint256"
        },
        {
          "internalType": "uint256",
          "name": "multiplier",
          "type": "uint256"
        }
      ],
      "stateMutability": "view",
      "type": "function"
    },
    {
      "inputs": [
        {
          "internalType": "uint256",
          "name": "amount",
          "type": "uint256"
        },
        {
          "internalType": "uint256",
          "name": "lockDuration",
          "type": "uint256"
        }
      ],
      "name": "stake",
      "outputs": [],
      "stateMutability": "nonpayable",
      "type": "function"
    },
    {
      "inputs": [
        {
          "internalType": "address",
          "name": "",
          "type": "address"
        }
      ],
      "name": "stakeInfo",
      "outputs": [
        {
          "internalType": "uint256",
          "name": "amount",
          "type": "uint256"
        },
        {
          "internalType": "uint256",
          "name": "startTimestamp",
          "type": "uint256"
        },
        {
          "internalType": "uint256",
          "name": "lockDuration",
          "type": "uint256"
        }
      ],
      "stateMutability": "view",
      "type": "function"
    },
    {
      "inputs": [],
      "name": "stakingToken",
      "outputs": [
        {
          "internalType": "contract IERC20",
          "name": "",
          "type": "address"
        }
      ],
      "stateMutability": "view",
      "type": "function"
    },
    {
      "inputs": [],
      "name": "totalStaked",
      "outputs": [
        {
          "internalType": "uint256",
          "name": "",
          "type": "uint256"
        }
      ],
      "stateMutability": "view",
      "type": "function"
    },
    {
      "inputs": [],
      "name": "unstake",
      "outputs": [],
      "stateMutability": "nonpayable",
      "type": "function"
    }
  ],
  "bytecode": "0x608060405234801561001057600080fd5b50604051612053380380612053833981810160405281019061003291906104d1565b876000806101000a81548173ffffffffffffffffffffffffffffffffffffffff021916908373ffffffffffffffffffffffffffffffffffffffff16021790555033600160006101000a81548173ffffffffffffffffffffffffffffffffffffffff021916908373ffffffffffffffffffffffffffffffffffffffff16021790555086600360006101000a81548160ff021916908360028111156100d8576100d76105a3565b5b021790555060005b86518110156101525760058782815181106100fe576100fd6105d2565b5b602002602001015190806001815401808255809150506001900390600052602060002090600202016000909190919091506000820151816000015560208201518160010155505080806001019150506100e0565b5084600660006101000a81548160ff0219169083151502179055508360078190555082600860006101000a81548160ff0219169083151502179055508160098190555080600a60008201518160000155602082015181600101559050505050505050505050610601565b6000604051905090565b600080fd5b600080fd5b600073ffffffffffffffffffffffffffffffffffffffff82169050919050565b60006101fb826101d0565b9050919050565b600061020d826101f0565b9050919050565b61021d81610202565b811461022857600080fd5b50565b60008151905061023a81610214565b92915050565b6003811061024d57600080fd5b50565b60008151905061025f81610240565b92915050565b600080fd5b6000601f19601f8301169050919050565b7f4e487b7100000000000000000000000000000000000000000000000000000000600052604160045260246000fd5b6102b38261026a565b810181811067ffffffffffffffff821117156102d2576102d161027b565b5b80604052505050565b60006102e56101bc565b90506102f182826102aa565b919050565b600067ffffffffffffffff8211156103115761031061027b565b5b602082029050602081019050919050565b600080fd5b600080fd5b6000819050919050565b61033f8161032c565b811461034a57600080fd5b50565b60008151905061035c81610336565b92915050565b60006040828403121561037857610377610327565b5b61038260406102db565b905060006103928482850161034d565b60008301525060206103a68482850161034d565b60208301525092915050565b60006103c56103c0846102f6565b6102db565b905080838252602082019050604084028301858111156103e8576103e7610322565b5b835b8181101561041157806103fd8882610362565b8452602084019350506040810190506103ea565b5050509392505050565b600082601f8301126104305761042f610265565b5b81516104408482602086016103b2565b91505092915050565b60008115159050919050565b61045e81610449565b811461046957600080fd5b50565b60008151905061047b81610455565b92915050565b60006040828403121561049757610496610327565b5b6104a160406102db565b905060006104b18482850161034d565b60008301525060206104c58482850161034d565b60208301525092915050565b600080600080600080600080610120898b0312156104f2576104f16101c6565b5b60006105008b828c0161022b565b98505060206105118b828c01610250565b975050604089015167ffffffffffffffff811115610532576105316101cb565b5b61053e8b828c0161041b565b965050606061054f8b828c0161046c565b95505060806105608b828c0161034d565b94505060a06105718b828c0161046c565b93505060c06105828b828c0161034d565b92505060e06105938b828c01610481565b9150509295985092959890939650565b7f4e487b7100000000000000000000000000000000000000000000000000000000600052602160045260246000fd5b7f4e487b7100000000000000000000000000000000000000000000000000000000600052603260045260246000fd5b611a43806106106000396000f3fe608060405234801561001057600080fd5b506004361061010b5760003560e01c80637bfc5211116100a2578063afbf344011610071578063afbf3440146102ab578063c01eab16146102c9578063c8124796146102e7578063d243a0e314610305578063ff201114146103235761010b565b80637bfc521114610232578063817b1cd2146102515780638da5cb5b1461026f5780639a3b85241461028d5761010b565b806345b90701116100de57806345b907011461019857806364ab8675146101c857806372f702f3146101f85780637b0472f0146102165761010b565b80630e6878a3146101105780631601e6411461012c5780632def66201461015e57806330e30e2514610168575b600080fd5b61012a60048036038101906101259190610f4e565b610354565b005b61014660048036038101906101419190610fd9565b6105a0565b6040516101559392919061101f565b60405180910390f35b6101666105ca565b005b610182600480360381019061017d9190611177565b610897565b60405161018f91906111a4565b60405180910390f35b6101b260048036038101906101ad91906111bf565b610922565b6040516101bf91906111a4565b60405180910390f35b6101e260048036038101906101dd9190610fd9565b6109d7565b6040516101ef91906111a4565b60405180910390f35b610200610b9d565b60405161020d919061124b565b60405180910390f35b610230600480360381019061022b9190611266565b610bc1565b005b61023a610e50565b6040516102489291906112a6565b60405180910390f35b610259610e62565b60405161026691906111a4565b60405180910390f35b610277610e68565b60405161028491906112de565b60405180910390f35b610295610e8e565b6040516102a29190611308565b60405180910390f35b6102b3610ea1565b6040516102c091906111a4565b60405180910390f35b6102d1610ea7565b6040516102de9190611308565b60405180910390f35b6102ef610eba565b6040516102fc91906111a4565b60405180910390f35b61030d610ec0565b60405161031a919061139a565b60405180910390f35b61033d600480360381019061033891906111bf565b610ed3565b60405161034b9291906112a6565b60405180910390f35b600061035f336109d7565b9050600081116103a4576040517f08c379a000000000000000000000000000000000000000000000000000000000815260040161039b90611412565b60405180910390fd5b81156104215780600460003373ffffffffffffffffffffffffffffffffffffffff1673ffffffffffffffffffffffffffffffffffffffff16815260200190815260200160002060000160008282546103fc9190611461565b9250508190555080600260008282546104159190611461565b9250508190555061054e565b600860009054906101000a900460ff16610470576040517f08c379a0000000000000000000000000000000000000000000000000000000008152600401610467906114e1565b60405180910390fd5b60008054906101000a900473ffffffffffffffffffffffffffffffffffffffff1673ffffffffffffffffffffffffffffffffffffffff1663a9059cbb33836040518363ffffffff1660e01b81526004016104cb929190611501565b6020604051808303816000875af11580156104ea573d6000803e3d6000fd5b505050506040513d601f19601f8201168201806040525081019061050e919061153f565b61054d576040517f08c379a0000000000000000000000000000000000000000000000000000000008152600401610544906115b8565b60405180910390fd5b5b3373ffffffffffffffffffffffffffffffffffffffff167ffc30cddea38e2bf4d6ea7d3f9ed3b6ad7f176419f4963bd81318067a4aee73fe8260405161059491906111a4565b60405180910390a25050565b60046020528060005260406000206000915090508060000154908060010154908060020154905083565b6000600460003373ffffffffffffffffffffffffffffffffffffffff1673ffffffffffffffffffffffffffffffffffffffff16815260200190815260200160002060405180606001604052908160008201548152602001600182015481526020016002820154815250509050600081600001511161067d576040517f08c379a000000000000000000000000000000000000000000000000000000000815260040161067490611624565b60405180910390fd5b6000816040015182602001516106939190611461565b42109050600080836000015190508280156106ba5750600660009054906101000a900460ff165b156106eb57612710600754826106d09190611644565b6106da91906116b5565b915081816106e891906116e6565b90505b83600001516002600082825461070191906116e6565b92505081905550600460003373ffffffffffffffffffffffffffffffffffffffff1673ffffffffffffffffffffffffffffffffffffffff16815260200190815260200160002060008082016000905560018201600090556002820160009055505060008054906101000a900473ffffffffffffffffffffffffffffffffffffffff1673ffffffffffffffffffffffffffffffffffffffff1663a9059cbb33836040518363ffffffff1660e01b81526004016107bd929190611501565b6020604051808303816000875af11580156107dc573d6000803e3d6000fd5b505050506040513d601f19601f82011682018060405250810190610800919061153f565b61083f576040517f08c379a0000000000000000000000000000000000000000000000000000000008152600401610836906115b8565b60405180910390fd5b3373ffffffffffffffffffffffffffffffffffffffff167fb870217905665894c8434c46e122702ec5e8a7f6c5f6751b58ee4d4668c7ad858285856040516108899392919061171a565b60405180910390a250505050565b6000808260200151426108aa91906116e6565b90506000600a60000154826108bf91906116b5565b9050600081600a6001015460646108d69190611461565b6108e09190611884565b905060646127108260095488600001516108fa9190611644565b6109049190611644565b61090e91906116b5565b61091891906116b5565b9350505050919050565b6000806064905060005b6005805490508110156109cd576005818154811061094d5761094c6118cf565b5b90600052602060002090600202016000015484101580156109925750816005828154811061097e5761097d6118cf565b5b906000526020600020906002020160010154115b156109c057600581815481106109ab576109aa6118cf565b5b90600052602060002090600202016001015491505b808060010191505061092c565b5080915050919050565b600080600460008473ffffffffffffffffffffffffffffffffffffffff1673ffffffffffffffffffffffffffffffffffffffff168152602001908152602001600020604051806060016040529081600082015481526020016001820154815260200160028201548152505090506000816000015103610a5a576000915050610b98565b60006002811115610a6e57610a6d611323565b5b600360009054906101000a900460ff166002811115610a9057610a8f611323565b5b03610abc576127106009548260000151610aaa9190611644565b610ab491906116b5565b915050610b98565b60016002811115610ad057610acf611323565b5b600360009054906101000a900460ff166002811115610af257610af1611323565b5b03610b47576000610b068260400151610922565b90506064612710826009548560000151610b209190611644565b610b2a9190611644565b610b3491906116b5565b610b3e91906116b5565b92505050610b98565b600280811115610b5a57610b59611323565b5b600360009054906101000a900460ff166002811115610b7c57610b7b611323565b5b03610b9257610b8a81610897565b915050610b98565b60009150505b919050565b60008054906101000a900473ffffffffffffffffffffffffffffffffffffffff1681565b60008211610c04576040517f08c379a0000000000000000000000000000000000000000000000000000000008152600401610bfb9061194a565b60405180910390fd5b6000600460003373ffffffffffffffffffffffffffffffffffffffff1673ffffffffffffffffffffffffffffffffffffffff1681526020019081526020016000206000015414610c89576040517f08c379a0000000000000000000000000000000000000000000000000000000008152600401610c80906119b6565b60405180910390fd5b604051806060016040528083815260200142815260200182815250600460003373ffffffffffffffffffffffffffffffffffffffff1673ffffffffffffffffffffffffffffffffffffffff1681526020019081526020016000206000820151816000015560208201518160010155604082015181600201559050508160026000828254610d169190611461565b9250508190555060008054906101000a900473ffffffffffffffffffffffffffffffffffffffff1673ffffffffffffffffffffffffffffffffffffffff166323b872dd3330856040518463ffffffff1660e01b8152600401610d7a939291906119d6565b6020604051808303816000875af1158015610d99573d6000803e3d6000fd5b505050506040513d601f19601f82011682018060405250810190610dbd919061153f565b610dfc576040517f08c379a0000000000000000000000000000000000000000000000000000000008152600401610df3906115b8565b60405180910390fd5b3373ffffffffffffffffffffffffffffffffffffffff167f1449c6dd7851abc30abf37f57715f492010519147cc2652fbc38202c18a6ee908383604051610e449291906112a6565b60405180910390a25050565b600a8060000154908060010154905082565b60025481565b600160009054906101000a900473ffffffffffffffffffffffffffffffffffffffff1681565b600660009054906101000a900460ff1681565b60095481565b600860009054906101000a900460ff1681565b60075481565b600360009054906101000a900460ff1681565b60058181548110610ee357600080fd5b90600052602060002090600202016000915090508060000154908060010154905082565b6000604051905090565b600080fd5b60008115159050919050565b610f2b81610f16565b8114610f3657600080fd5b50565b600081359050610f4881610f22565b92915050565b600060208284031215610f6457610f63610f11565b5b6000610f7284828501610f39565b91505092915050565b600073ffffffffffffffffffffffffffffffffffffffff82169050919050565b6000610fa682610f7b565b9050919050565b610fb681610f9b565b8114610fc157600080fd5b50565b600081359050610fd381610fad565b92915050565b600060208284031215610fef57610fee610f11565b5b6000610ffd84828501610fc4565b91505092915050565b6000819050919050565b61101981611006565b82525050565b60006060820190506110346000830186611010565b6110416020830185611010565b61104e6040830184611010565b949350505050565b600080fd5b6000601f19601f8301169050919050565b7f4e487b7100000000000000000000000000000000000000000000000000000000600052604160045260246000fd5b6110a48261105b565b810181811067ffffffffffffffff821117156110c3576110c261106c565b5b80604052505050565b60006110d6610f07565b90506110e2828261109b565b919050565b6110f081611006565b81146110fb57600080fd5b50565b60008135905061110d816110e7565b92915050565b60006060828403121561112957611128611056565b5b61113360606110cc565b90506000611143848285016110fe565b6000830152506020611157848285016110fe565b602083015250604061116b848285016110fe565b60408301525092915050565b60006060828403121561118d5761118c610f11565b5b600061119b84828501611113565b91505092915050565b60006020820190506111b96000830184611010565b92915050565b6000602082840312156111d5576111d4610f11565b5b60006111e3848285016110fe565b91505092915050565b6000819050919050565b600061121161120c61120784610f7b565b6111ec565b610f7b565b9050919050565b6000611223826111f6565b9050919050565b600061123582611218565b9050919050565b6112458161122a565b82525050565b6000602082019050611260600083018461123c565b92915050565b6000806040838503121561127d5761127c610f11565b5b600061128b858286016110fe565b925050602061129c858286016110fe565b9150509250929050565b60006040820190506112bb6000830185611010565b6112c86020830184611010565b9392505050565b6112d881610f9b565b82525050565b60006020820190506112f360008301846112cf565b92915050565b61130281610f16565b82525050565b600060208201905061131d60008301846112f9565b92915050565b7f4e487b7100000000000000000000000000000000000000000000000000000000600052602160045260246000fd5b6003811061136357611362611323565b5b50565b600081905061137482611352565b919050565b600061138482611366565b9050919050565b61139481611379565b82525050565b60006020820190506113af600083018461138b565b92915050565b600082825260208201905092915050565b7f4e6f207265776172647300000000000000000000000000000000000000000000600082015250565b60006113fc600a836113b5565b9150611407826113c6565b602082019050919050565b6000602082019050818103600083015261142b816113ef565b9050919050565b7f4e487b7100000000000000000000000000000000000000000000000000000000600052601160045260246000fd5b600061146c82611006565b915061147783611006565b925082820190508082111561148f5761148e611432565b5b92915050565b7f4175746f2d646973747269627574652064697361626c65640000000000000000600082015250565b60006114cb6018836113b5565b91506114d682611495565b602082019050919050565b600060208201905081810360008301526114fa816114be565b9050919050565b600060408201905061151660008301856112cf565b6115236020830184611010565b9392505050565b60008151905061153981610f22565b92915050565b60006020828403121561155557611554610f11565b5b60006115638482850161152a565b91505092915050565b7f5472616e73666572206661696c65640000000000000000000000000000000000600082015250565b60006115a2600f836113b5565b91506115ad8261156c565b602082019050919050565b600060208201905081810360008301526115d181611595565b9050919050565b7f4e6f7468696e67207374616b6564000000000000000000000000000000000000600082015250565b600061160e600e836113b5565b9150611619826115d8565b602082019050919050565b6000602082019050818103600083015261163d81611601565b9050919050565b600061164f82611006565b915061165a83611006565b925082820261166881611006565b9150828204841483151761167f5761167e611432565b5b5092915050565b7f4e487b7100000000000000000000000000000000000000000000000000000000600052601260045260246000fd5b60006116c082611006565b91506116cb83611006565b9250826116db576116da611686565b5b828204905092915050565b60006116f182611006565b91506116fc83611006565b925082820390508181111561171457611713611432565b5b92915050565b600060608201905061172f6000830186611010565b61173c60208301856112f9565b6117496040830184611010565b949350505050565b60008160011c9050919050565b6000808291508390505b60018511156117a85780860481111561178457611783611432565b5b60018516156117935780820291505b80810290506117a185611751565b9450611768565b94509492505050565b6000826117c1576001905061187d565b816117cf576000905061187d565b81600181146117e557600281146117ef5761181e565b600191505061187d565b60ff84111561180157611800611432565b5b8360020a91508482111561181857611817611432565b5b5061187d565b5060208310610133831016604e8410600b84101617156118535782820a90508381111561184e5761184d611432565b5b61187d565b611860848484600161175e565b9250905081840481111561187757611876611432565b5b81810290505b9392505050565b600061188f82611006565b915061189a83611006565b92506118c77fffffffffffffffffffffffffffffffffffffffffffffffffffffffffffffffff84846117b1565b905092915050565b7f4e487b7100000000000000000000000000000000000000000000000000000000600052603260045260246000fd5b7f416d6f756e74206d7573742062652067726561746572207468616e207a65726f600082015250565b60006119346020836113b5565b915061193f826118fe565b602082019050919050565b6000602082019050818103600083015261196381611927565b9050919050565b7f416c7265616479207374616b6564000000000000000000000000000000000000600082015250565b60006119a0600e836113b5565b91506119ab8261196a565b602082019050919050565b600060208201905081810360008301526119cf81611993565b9050919050565b60006060820190506119eb60008301866112cf565b6119f860208301856112cf565b611a056040830184611010565b94935050505056fea264697066735822122080fefaad74f311d09ba121a40109dbb01686919148a00de188f574b18a34383264736f6c634300081c0033",
  "linkReferences": {},
  "deployedLinkReferences": {}
}